{
  "_format": "hh-sol-artifact-1",
  "contractName": "Activity",
  "sourceName": "contracts/Activity.sol",
  "abi": [
    {
      "inputs": [],
      "name": "didIwin",
      "outputs": [
        {
          "internalType": "bool",
          "name": "",
          "type": "bool"
        }
      ],
      "stateMutability": "view",
      "type": "function"
    },
    {
      "inputs": [
        {
          "internalType": "string",
          "name": "_name",
          "type": "string"
        }
      ],
      "name": "setName",
      "outputs": [],
      "stateMutability": "nonpayable",
      "type": "function"
    }
  ],
  "bytecode": "0x608060405234801561001057600080fd5b506108b6806100206000396000f3fe608060405234801561001057600080fd5b50600436106100365760003560e01c8063c47f00271461003b578063cdb4d19914610057575b600080fd5b610055600480360381019061005091906103c0565b610075565b005b61005f61020a565b60405161006c9190610424565b60405180910390f35b600360008054906101000a900460ff1660ff16106100c8576040517f08c379a00000000000000000000000000000000000000000000000000000000081526004016100bf9061049c565b60405180910390fd5b6000600160003373ffffffffffffffffffffffffffffffffffffffff1673ffffffffffffffffffffffffffffffffffffffff16815260200190815260200160002090508181600001908161011c91906106dd565b508060010160149054906101000a900460ff161561016f576040517f08c379a0000000000000000000000000000000000000000000000000000000008152600401610166906107fb565b60405180910390fd5b338160010160006101000a81548173ffffffffffffffffffffffffffffffffffffffff021916908373ffffffffffffffffffffffffffffffffffffffff16021790555060018160010160146101000a81548160ff02191690831515021790555060008081819054906101000a900460ff16809291906101ed90610857565b91906101000a81548160ff021916908360ff160217905550505050565b600080600160003373ffffffffffffffffffffffffffffffffffffffff1673ffffffffffffffffffffffffffffffffffffffff16815260200190815260200160002090508060010160149054906101000a900460ff1691505090565b6000604051905090565b600080fd5b600080fd5b600080fd5b600080fd5b6000601f19601f8301169050919050565b7f4e487b7100000000000000000000000000000000000000000000000000000000600052604160045260246000fd5b6102cd82610284565b810181811067ffffffffffffffff821117156102ec576102eb610295565b5b80604052505050565b60006102ff610266565b905061030b82826102c4565b919050565b600067ffffffffffffffff82111561032b5761032a610295565b5b61033482610284565b9050602081019050919050565b82818337600083830152505050565b600061036361035e84610310565b6102f5565b90508281526020810184848401111561037f5761037e61027f565b5b61038a848285610341565b509392505050565b600082601f8301126103a7576103a661027a565b5b81356103b7848260208601610350565b91505092915050565b6000602082840312156103d6576103d5610270565b5b600082013567ffffffffffffffff8111156103f4576103f3610275565b5b61040084828501610392565b91505092915050565b60008115159050919050565b61041e81610409565b82525050565b60006020820190506104396000830184610415565b92915050565b600082825260208201905092915050565b7f6578686175737465640000000000000000000000000000000000000000000000600082015250565b600061048660098361043f565b915061049182610450565b602082019050919050565b600060208201905081810360008301526104b581610479565b9050919050565b600081519050919050565b7f4e487b7100000000000000000000000000000000000000000000000000000000600052602260045260246000fd5b6000600282049050600182168061050e57607f821691505b602082108103610521576105206104c7565b5b50919050565b60008190508160005260206000209050919050565b60006020601f8301049050919050565b600082821b905092915050565b6000600883026105897fffffffffffffffffffffffffffffffffffffffffffffffffffffffffffffffff8261054c565b610593868361054c565b95508019841693508086168417925050509392505050565b6000819050919050565b6000819050919050565b60006105da6105d56105d0846105ab565b6105b5565b6105ab565b9050919050565b6000819050919050565b6105f4836105bf565b610608610600826105e1565b848454610559565b825550505050565b600090565b61061d610610565b6106288184846105eb565b505050565b5b8181101561064c57610641600082610615565b60018101905061062e565b5050565b601f8211156106915761066281610527565b61066b8461053c565b8101602085101561067a578190505b61068e6106868561053c565b83018261062d565b50505b505050565b600082821c905092915050565b60006106b460001984600802610696565b1980831691505092915050565b60006106cd83836106a3565b9150826002028217905092915050565b6106e6826104bc565b67ffffffffffffffff8111156106ff576106fe610295565b5b61070982546104f6565b610714828285610650565b600060209050601f8311600181146107475760008415610735578287015190505b61073f85826106c1565b8655506107a7565b601f19841661075586610527565b60005b8281101561077d57848901518255600182019150602085019450602081019050610758565b8683101561079a5784890151610796601f8916826106a3565b8355505b6001600288020188555050505b505050505050565b7f416c6c6f77206f746865727320746f2077696e20000000000000000000000000600082015250565b60006107e560148361043f565b91506107f0826107af565b602082019050919050565b60006020820190508181036000830152610814816107d8565b9050919050565b7f4e487b7100000000000000000000000000000000000000000000000000000000600052601160045260246000fd5b600060ff82169050919050565b60006108628261084a565b915060ff82036108755761087461081b565b5b60018201905091905056fea2646970667358221220212d70c326ced383f3d83f652c1ad86308af6daf3fb89583467480df5cd2700064736f6c63430008160033",
  "linkReferences": {},
  "deployedLinkReferences": {}
}