{
  "_format": "hh-sol-artifact-1",
  "contractName": "SetterGetter",
  "sourceName": "contracts/SetterGetter.sol",
  "abi": [
    {
      "inputs": [
        {
          "internalType": "uint8",
          "name": "_age",
          "type": "uint8"
        }
      ],
      "name": "setAge",
      "outputs": [],
      "stateMutability": "nonpayable",
      "type": "function"
    },
    {
      "inputs": [
        {
          "internalType": "string",
          "name": "_name",
          "type": "string"
        }
      ],
      "name": "setName",
      "outputs": [],
      "stateMutability": "nonpayable",
      "type": "function"
    },
    {
      "inputs": [],
      "name": "viewAge",
      "outputs": [
        {
          "internalType": "uint8",
          "name": "_age",
          "type": "uint8"
        }
      ],
      "stateMutability": "view",
      "type": "function"
    },
    {
      "inputs": [],
      "name": "viewName",
      "outputs": [
        {
          "internalType": "string",
          "name": "_name",
          "type": "string"
        }
      ],
      "stateMutability": "view",
      "type": "function"
    }
  ],
  "bytecode": "0x608060405234801561001057600080fd5b50610791806100206000396000f3fe608060405234801561001057600080fd5b506004361061004c5760003560e01c80635b0c8d7014610051578063b5f10b381461006d578063c47f00271461008b578063fb778986146100a7575b600080fd5b61006b600480360381019061006691906101ec565b6100c5565b005b6100756100e3565b60405161008291906102a9565b60405180910390f35b6100a560048036038101906100a09190610400565b610175565b005b6100af610188565b6040516100bc9190610458565b60405180910390f35b80600160006101000a81548160ff021916908360ff16021790555050565b6060600080546100f2906104a2565b80601f016020809104026020016040519081016040528092919081815260200182805461011e906104a2565b801561016b5780601f106101405761010080835404028352916020019161016b565b820191906000526020600020905b81548152906001019060200180831161014e57829003601f168201915b5050505050905090565b80600090816101849190610689565b5050565b6000600160009054906101000a900460ff16905090565b6000604051905090565b600080fd5b600080fd5b600060ff82169050919050565b6101c9816101b3565b81146101d457600080fd5b50565b6000813590506101e6816101c0565b92915050565b600060208284031215610202576102016101a9565b5b6000610210848285016101d7565b91505092915050565b600081519050919050565b600082825260208201905092915050565b60005b83811015610253578082015181840152602081019050610238565b60008484015250505050565b6000601f19601f8301169050919050565b600061027b82610219565b6102858185610224565b9350610295818560208601610235565b61029e8161025f565b840191505092915050565b600060208201905081810360008301526102c38184610270565b905092915050565b600080fd5b600080fd5b7f4e487b7100000000000000000000000000000000000000000000000000000000600052604160045260246000fd5b61030d8261025f565b810181811067ffffffffffffffff8211171561032c5761032b6102d5565b5b80604052505050565b600061033f61019f565b905061034b8282610304565b919050565b600067ffffffffffffffff82111561036b5761036a6102d5565b5b6103748261025f565b9050602081019050919050565b82818337600083830152505050565b60006103a361039e84610350565b610335565b9050828152602081018484840111156103bf576103be6102d0565b5b6103ca848285610381565b509392505050565b600082601f8301126103e7576103e66102cb565b5b81356103f7848260208601610390565b91505092915050565b600060208284031215610416576104156101a9565b5b600082013567ffffffffffffffff811115610434576104336101ae565b5b610440848285016103d2565b91505092915050565b610452816101b3565b82525050565b600060208201905061046d6000830184610449565b92915050565b7f4e487b7100000000000000000000000000000000000000000000000000000000600052602260045260246000fd5b600060028204905060018216806104ba57607f821691505b6020821081036104cd576104cc610473565b5b50919050565b60008190508160005260206000209050919050565b60006020601f8301049050919050565b600082821b905092915050565b6000600883026105357fffffffffffffffffffffffffffffffffffffffffffffffffffffffffffffffff826104f8565b61053f86836104f8565b95508019841693508086168417925050509392505050565b6000819050919050565b6000819050919050565b600061058661058161057c84610557565b610561565b610557565b9050919050565b6000819050919050565b6105a08361056b565b6105b46105ac8261058d565b848454610505565b825550505050565b600090565b6105c96105bc565b6105d4818484610597565b505050565b5b818110156105f8576105ed6000826105c1565b6001810190506105da565b5050565b601f82111561063d5761060e816104d3565b610617846104e8565b81016020851015610626578190505b61063a610632856104e8565b8301826105d9565b50505b505050565b600082821c905092915050565b600061066060001984600802610642565b1980831691505092915050565b6000610679838361064f565b9150826002028217905092915050565b61069282610219565b67ffffffffffffffff8111156106ab576106aa6102d5565b5b6106b582546104a2565b6106c08282856105fc565b600060209050601f8311600181146106f357600084156106e1578287015190505b6106eb858261066d565b865550610753565b601f198416610701866104d3565b60005b8281101561072957848901518255600182019150602085019450602081019050610704565b868310156107465784890151610742601f89168261064f565b8355505b6001600288020188555050505b50505050505056fea2646970667358221220607f497bfc610a52f9fe305802882f49e5f86c42a4f539923d0ea9e05834e94064736f6c63430008160033",
  "linkReferences": {},
  "deployedLinkReferences": {}
}